:100000000C947D000C9486060C945F060C94A5005D
:100010000C94A5000C94A5000C942F080C94A5003A
:100020000C94A5000C94A5000C94A5000C94A500BC
:100030000C94A5000C94A5000C94A5000C94A500AC
:100040000C9415060C94A5000C94D3060C94AD06E4
:100050000C94A5000C94A5000C94A5000C94A5008C
:100060000C9405070C94A500000000002400270054
:100070002A0000000000250028002B0000000000DE
:1000800023002600290004040404040404040202DA
:100090000202020203030303030301020408102007
:1000A0004080010204081020010204081020000012
:1000B0000008000201000003040700000000000027
:1000C00000005E01011F01030301008A02010A0111
:1000D0000202010064001E47040B0906007C0101B6
:1000E000060103030100F401060E0102020100C231
:1000F0000117010102020101460811241FBECFEFC2
:10010000D8E0DEBFCDBF11E0A0E0B1E0E0E1FBE16F
:1001100002C005900D92AE36B107D9F723E0AEE6E6
:10012000B1E001C01D92A933B207E1F710E0CDE7BD
:10013000D0E004C02197FE010E947B0DCC37D1078F
:10014000C9F70E94A9080C94860D0C940000833016
:1001500081F028F4813099F08230A1F00895873041
:10016000A9F08830B9F08430D1F4809180008F7D7F
:1001700003C0809180008F7780938000089584B5BC
:100180008F7702C084B58F7D84BD08958091B000C3
:100190008F7703C08091B0008F7D8093B000089569
:1001A000CF93DF93282F30E0F901E255FF4F849180
:1001B000F901E656FF4FD491F901EA57FF4FC49178
:1001C000CC2391F081110E94A700EC2FF0E0EE0FFC
:1001D000FF1FE458FF4FA591B491EC91ED2381E00E
:1001E00090E021F480E002C080E090E0DF91CF91C8
:1001F00008951F93CF93DF93282F30E0F901E25544
:10020000FF4F8491F901E656FF4FD491F901EA5767
:10021000FF4FC491CC23C1F0162F81110E94A7007B
:10022000EC2FF0E0EE0FFF1FEE58FF4FA591B491B9
:100230009FB7F894111104C08C91D095D82302C0B7
:10024000EC91DE2BDC939FBFDF91CF911F9108953E
:100250001F93CF93DF93182FD92F809138038823D2
:1002600019F060E0C1E002C061E0C0E080912C03C1
:100270000E94F9002091300330913103129FC00198
:10028000139F900D11248230910538F0880F991F2B
:10029000880F991F05970197F1F76C2F80912C0318
:1002A0000E94F9002091300330913103D29FC001A8
:1002B000D39F900D11248230910538F0880F991F3B
:1002C000880F991F05970197F1F7DF91CF911F9143
:1002D0000895CF93DF9390E0FC01E656FF4F249101
:1002E000FC01EA57FF4F8491882361F190E0880F69
:1002F000991FFC01E859FF4FC591D491FC01EE58BC
:10030000FF4FA591B491611109C09FB7F8948881FE
:10031000209582238883EC912E230BC0623061F4F8
:100320009FB7F8948881322F309583238883EC918E
:100330002E2B2C939FBF06C08FB7F894E8812E2BED
:1003400028838FBFDF91CF9108958E3008F08E50B3
:100350008770806480937C0080917A0080648093B1
:100360007A0080917A0086FDFCCF80917800209100
:10037000790090E0922B08953FB7F89480916C0239
:1003800090916D02A0916E02B0916F0226B5A89B6C
:1003900005C02F3F19F00196A11DB11D3FBFBA2F17
:1003A000A92F982F8827820F911DA11DB11DBC0177
:1003B000CD0142E0660F771F881F991F4A95D1F73C
:1003C00008958F929F92AF92BF92CF92DF92EF9259
:1003D000FF926B017C010E94BC014B015C01C114C6
:1003E000D104E104F104F1F00E94BC01DC01CB0175
:1003F00088199909AA09BB09883E9340A105B1054E
:1004000070F321E0C21AD108E108F10888EE880EE5
:1004100083E0981EA11CB11CC114D104E104F104B5
:1004200019F7DDCFFF90EF90DF90CF90BF90AF90A6
:100430009F908F900895EF92FF921F93CF93DF9339
:1004400061E0809123030E94F9006AEF70E080E090
:1004500090E00E94E1012FB7F89480917002909192
:100460007102A0917202B09173022FBF40912503D7
:1004700050912603609127037091280384179507F4
:10048000A607B70740F41092250310922603109296
:1004900027031092280320912903211113C04091B2
:1004A0002503509126036091270370912803841B34
:1004B000950BA60BB70B803D9740A105B10510F435
:1004C00081E084C0109229032FB7F89480917002C4
:1004D00090917102A0917202B09173022FBF80932C
:1004E000250390932603A0932703B093280310922B
:1004F00021031092200310921F0310921E031092EA
:100500001D0361E0809123030E94690160E08091F6
:1005100023030E94F90064E170E080E090E00E9413
:10052000E101F89461E0809123030E94F9008BE9D6
:1005300090E00197F1F760E0809123030E94690148
:1005400010E081E0C0E0D0E0E82EF12C80912303A0
:100550000E94D0008E159F0519F4DF5FDF3FB1F7D1
:10056000809123030E94D000DF3FA9F0C43080F0C7
:10057000C0FD0EC0E12FE695E695E695F0E0E35E5E
:10058000FC4F9081990FD73008F0916090831F5FE6
:10059000CF5FC535C1F678941832B8F020912103A9
:1005A00030E040911D0380911E0390E0840F911D67
:1005B00040911F03840F911D40912003840F911DD2
:1005C00099272817390709F47BCF80E0DF91CF9175
:1005D0001F91FF90EF9008950895CF92DF92EF92D0
:1005E000FF920F931F93CF93DF936C017A018B01DE
:1005F000C0E0D0E0CE15DF0581F0D8016D918D010E
:10060000D601ED91FC910190F081E02DC601099594
:10061000892B11F02196EECF7E01C701DF91CF919A
:100620001F910F91FF90EF90DF90CF900895FC0104
:10063000538D448D252F30E0842F90E0821B930B47
:10064000541710F0CF96089501970895FC01918DED
:10065000828D981761F0828DDF01A80FB11D5D9624
:100660008C91928D9F5F9F73928F90E008958FEF92
:100670009FEF0895FC01918D828D981731F0828D46
:10068000E80FF11D858D90E008958FEF9FEF08959D
:10069000FC01918D228D892F90E0805C9F4F821B01
:1006A00091098F739927089584E792E00E94480387
:1006B00021E0892B09F420E0822F0895FC01848D2C
:1006C000DF01A80FB11DA35ABF4F2C91848D90E07C
:1006D00001968F739927848FA689B7892C93A08957
:1006E000B1898C91837080648C93938D848D9813E1
:1006F00006C00288F389E02D80818F7D8083089574
:10070000EF92FF920F931F93CF93DF93EC0181E061
:10071000888F9B8D8C8D981305C0E889F98980811D
:1007200085FD26C0F62E0B8D10E00F5F1F4F0F7357
:100730001127E02E8C8DE8120CC00FB607FCFACF03
:10074000E889F989808185FFF5CFCE010E945E039B
:10075000F1CF8B8DFE01E80FF11DE35AFF4FF082C0
:100760009FB7F8940B8FEA89FB89808180620AC069
:100770009FB7F894EE89FF896083E889F9898081C1
:100780008370806480839FBF81E090E0DF91CF9190
:100790001F910F91FF90EF900895CF93DF93EC019D
:1007A000888D8823C9F0EA89FB89808185FD05C091
:1007B000A889B9898C9186FD0FC00FB607FCF5CFCB
:1007C000808185FFF2CFA889B9898C9185FFEDCF13
:1007D000CE010E945E03E7CFDF91CF91089580E0C4
:1007E00090E0892B29F00E94540381110C940000A1
:1007F000089585ED8093BC008091BC0084FDFCCF02
:1008000010924102089540911D02262F30E0240FDE
:10081000311D21323105DCF4209141022430C9F42C
:10082000FC0180E090E0861758F430911D02219180
:10083000DC01A350BE4FA30FB11D2C930196F3CF43
:1008400080911D02680F60931D0280E0089581E091
:10085000089582E0089508958FEF9FEF08958FEF38
:100860009FEF08958091FC0190E091958195910909
:100870000895CF93DF93CB01EA01642F0E94030414
:10088000CE01DF91CF910895CF93DF931F92CDB723
:10089000DEB7698361E0CE0101960E94030481E026
:1008A00090E00F90DF91CF910895089580E090E05F
:1008B00008952F923F924F925F926F927F928F9204
:1008C0009F92AF92BF92CF92DF92EF92FF920F93DF
:1008D0001F93CF93DF93CDB7DEB72D970FB6F89464
:1008E000DEBF0FBECDBF0E94BC014B015C018091F9
:1008F000F8019091F9017401E81AF90A2DECE21659
:1009000020E1F20608F4C0C0809172019091730159
:10091000A701481B590BCA0157FF03C09195819548
:100920009109883C91050CF0ABC0809170019091C9
:10093000710101969093710180937001029709F003
:100940009FC002EC10E0C0906E01D0906F0149E0B2
:1009500050E0B801CE0101960E94270B8B816C817B
:10096000681708F4682F70E080917201909173010C
:100970000E94670DFB012091040130910501629FE7
:10098000C001639F900D729F900D112464E670E08A
:100990000E94670D8985811103C021E030E002C00B
:1009A00022E030E08D818E9FD0018F9FB00D112409
:1009B000BB87AA878E818E9F10018F9F300C1124D8
:1009C0008F818E9F20018F9F500C112488858E9FD0
:1009D00030018F9F700C1124F901EE0FFF1FEE58AC
:1009E000FE4FA601415051095D874C878C859D853E
:1009F00028173907A8F580819181AC01AA85BB85AC
:100A00004A1B5B0B57FF03C051954195510946178F
:100A1000570760F4428153814219530957FF03C0BD
:100A200051954195510946175707B0F0841995091A
:100A300097FF03C091958195910986179707A0F4B8
:100A4000828193818619970997FF03C091958195BB
:100A500091098617970740F42E5F3F4F3496C6CF13
:100A6000B8E0CB16D10440F4075F1F4F28EF30E009
:100A70002017310709F067CF1092710110927001B1
:100A800010926F0110926E0180916E0190916F0132
:100A90008334910540F010926F0110926E01109214
:100AA00071011092700180916E0190916F019C0113
:100AB0002F5F3F4F30936F0120936E01880F991F76
:100AC000FC01EE58FE4FF182E0828092F801909294
:100AD000F901A092FA01B092FB012D960FB6F8949D
:100AE000DEBF0FBECDBFDF91CF911F910F91FF9061
:100AF000EF90DF90CF90BF90AF909F908F907F90BE
:100B00006F905F904F903F902F900895009769F0FD
:100B1000FC0101900020E9F73197AF01481B590B08
:100B2000BC0184E792E00C94ED0280E090E008952F
:100B3000CF92DF92EF92FF92CF93DF93C82F0E9464
:100B40001B02882309F456C0809124038B3031F0B6
:100B500008F450C085518230A0F04CC060911F0352
:100B600070E080E090E00E94430CCC2309F44BC07D
:100B700020E030E040E151E46B017C01C701B601A7
:100B80002AC0D0911F036D2F6F7770E080E090E056
:100B90000E94450C20E030E040E853E40E94F50C50
:100BA0006B017C016091200370E080E090E00E9486
:100BB000450CA70196010E94310B20E030E040E295
:100BC00051E40E94A20BD7FD9058CC23E1F020E025
:100BD00030E040E151E40E94F50C20E030E040EAD2
:100BE00050E40E94A20B20E030E040E052E40E947A
:100BF000310B09C08AE291E00E94860540E030E0B6
:100C000020EC9FE703C0462F372F282FC42ED32E6A
:100C1000E22EF92EC701B601DF91CF91FF90EF9040
:100C2000DF90CF9008950E94810D1F920F920FB612
:100C30000F9211242F933F938F939F93AF93BF9362
:100C40008091700290917102A0917202B091730232
:100C500030916B0223E0230F2D3720F40196A11D64
:100C6000B11D05C026E8230F0296A11DB11D2093DA
:100C70006B028093700290937102A0937202B09302
:100C8000730280916C0290916D02A0916E02B091FE
:100C90006F020196A11DB11D80936C0290936D02AD
:100CA000A0936E02B0936F02BF91AF919F918F910D
:100CB0003F912F910F900FBE0F901F9018951F928C
:100CC0000F920FB60F9211242F933F934F935F9380
:100CD0006F937F938F939F93AF93BF93EF93FF9304
:100CE000E0910201F09103010995FF91EF91BF910D
:100CF000AF919F918F917F916F915F914F913F91B4
:100D00002F910F900FBE0F901F9018951F920F926A
:100D10000FB60F9211242F933F934F935F936F93CE
:100D20007F938F939F93AF93BF93EF93FF93E09144
:100D30000001F09101010995FF91EF91BF91AF91F1
:100D40009F918F917F916F915F914F913F912F91E3
:100D50000F900FBE0F901F9018951F920F920FB615
:100D60000F9211242F933F934F935F936F937F9331
:100D70008F939F93AF93BF93EF93FF9384E792E09A
:100D80000E945E03FF91EF91BF91AF919F918F9170
:100D90007F916F915F914F913F912F910F900FBE77
:100DA0000F901F9018951F920F920FB60F9211245B
:100DB0002F938F939F93EF93FF93E0918402F09191
:100DC00085028081E0918A02F0918B0282FD12C03F
:100DD000908180918D028F5F8F7320918E02821798
:100DE00051F0E0918D02F0E0EC58FD4F958F80932B
:100DF0008D0201C08081FF91EF919F918F912F9182
:100E00000F900FBE0F901F9018951F920F920FB664
:100E10000F9211242F933F934F935F936F937F9380
:100E20008F939F93AF93BF93EF93FF938091B900FC
:100E3000887F803609F49CC068F5883209F45BC06D
:100E400090F4803109F454C038F4882309F4F2C0D6
:100E5000883009F44DC0F2C0883109F44CC08032AA
:100E600009F45DC0EBC0803409F468C048F48033F5
:100E700009F455C0883309F0E1C080934002D4C022
:100E8000803509F44FC0883509F45DC0883409F015
:100E9000D5C0D2C0883909F4C3C0A8F4883709F492
:100EA00067C038F4883609F463C0803709F460C03D
:100EB000C5C0883809F4B4C0803909F45FC08038EF
:100EC00009F0BCC05BC0803B09F484C038F4803AB0
:100ED00009F466C0883A09F47DC0B0C0803C09F4CA
:100EE000A3C0883C09F4A0C0883B09F486C0A6C012
:100EF0008091660210C090916502809164029817FB
:100F000070F5E091650281E08E0F80936502F0E05C
:100F1000EC5BFD4F80818093BB0085EC82C08093A9
:100F200040028AC0E091650281E08E0F80936502E5
:100F30008091BB00F0E0EC5BFD4F808390916502F7
:100F4000809164026AC0E091650281E08E0F809317
:100F500065028091BB00F0E0EC5BFD4F80838091E7
:100F60004302811169C081E08093420284EA5DC03E
:100F700083E08093410210923F02CFCF80913F02E5
:100F8000803208F04DC0E0913F0281E08E0F8093E7
:100F90003F028091BB00F0E0E15EFD4F8083BDCF5A
:100FA00085EC8093BC001092410280913F02803218
:100FB00030F4E0913F02F0E0E15EFD4F108260917D
:100FC0003F0270E08FE192E0E0E0F0E009951092DE
:100FD0003F0234C084E08093410210921E021092BE
:100FE0001D02E0E0F0E0099580911D02811105C02D
:100FF00081E080931D021092FD01E0911E0281E0CC
:101000008E0F80931E02F0E0E350FE4F80818093AC
:10101000BB0090911E0280911D02981708F47DCFAD
:1010200085E88093BC000AC085EC8093BC001092D8
:10103000410204C0109240020E94F903FF91EF9117
:10104000BF91AF919F918F917F916F915F914F91E0
:101050003F912F910F900FBE0F901F9018951F92E8
:101060000F920FB60F9211248F930FB6F894A89594
:1010700080916000886180936000109260000FBED4
:101080008F910F900FBE0F901F9018950F931F9385
:10109000CF93DF93E4E7F2E01382128288EE93E0CD
:1010A000A0E0B0E084839583A683B7832AE031E093
:1010B0003183208325EC30E03587248724EC30E031
:1010C0003787268720EC30E0318B208B21EC30E015
:1010D000338B228B22EC30E0358B248B26EC30E0F6
:1010E000378B268B118E128E138E148EE1E1F3E076
:1010F0001382128284839583A683B7838CE191E067
:1011000091838083CAE2D3E00FEF1FEF1B830A8332
:101110008AE090E09D838C8349E050E062EC70E0CF
:1011200080E393E00E94270B198308838CE390E00F
:101130009093050180930401EDE1F3E084E0868360
:1011400086E1878381E08487DF91CF911F910F91A2
:101150000895CF93DF93CDB7DEB7A1970FB6F8947C
:10116000DEBF0FBECDBF789484B5826084BD84B5E8
:10117000816084BD85B5826085BD85B5816085BD92
:1011800080916E00816080936E001092810080914A
:1011900081008260809381008091810081608093D2
:1011A0008100809180008160809380008091B100F7
:1011B00084608093B1008091B00081608093B00022
:1011C00080917A00846080937A0080917A008260B6
:1011D00080937A0080917A00816080937A00809178
:1011E0007A00806880937A001092C10082E090E0DB
:1011F00090932D0380932C0361E00E94690149E0E4
:1012000050E06BEC70E080E393E00E94270B86E0F7
:1012100090E090932F0380932E03E0918402F0914D
:10122000850282E08083E0918002F0918102108249
:10123000E0918202F09183028FEC808310928C0205
:10124000E0918802F091890286E08083E091860235
:10125000F0918702808180618083E0918602F09125
:101260008702808188608083E0918602F091870206
:10127000808180688083E0918602F091870280817E
:101280008F7D808361E08DE00E94690160E0809144
:1012900023030E94690161E0809123030E94F90009
:1012A0001092250310922603109227031092280310
:1012B00060E086E00E94690160E087E00E946901C9
:1012C00084E391E00E94860588E591E00E9486050E
:1012D00009E5202E04E0302E0E941B02882399F19C
:1012E000809124038B3029F170F18551823058F5BB
:1012F00060911D0370E080E090E00E94430C20E0CC
:1013000030E040E853E40E94F50C6B017C016091F1
:101310001E0370E080E090E00E94450CA70196015A
:101320000E94310B20E030E040E251E40E94A20B29
:1013300007C060911D0370E080E090E00E94430CC4
:101340004B015C010AC08AE291E00E948605812C73
:10135000912C10ECA12E1FE7B12E80E00E94980581
:101360002B013C0181E00E9498056B017C01A501E5
:101370009401C501B4010E94620D81113BC1A3011A
:101380009201C301B2010E94620D811133C1A70114
:101390009601C701B6010E94620D81112BC18BE538
:1013A00091E00E948605C301B2010E94140CC62E72
:1013B000D12CDC2CCC24DD0C0D2C000CEE08FF080D
:1013C000C501B4010E94140C862F90E0A0E0B0E0AB
:1013D000A263B363C82AD92AEA2AFB2A20E030E0B4
:1013E000A901C301B2010E949D0B87FF02C068944E
:1013F000E0F8C0926702D0926802E0926902F0922F
:101400006A0200916702109168022091690230918E
:101410006A0219A2CE018196B901A8014F70552721
:1014200066277727B4E03695279517950795BA95DF
:10143000D1F701974A3014F4405D01C0495CFC01CA
:101440004083011511052105310531F70E948605FC
:1014500088E591E00E94860561E08DE00E94F90038
:1014600080912C0390912D03019609F483C0809004
:10147000670290906802A0906902B0906A020091A1
:101480002A0310912B030F3F2FEF1207B9F0023000
:1014900078F4013011F0E89801C0E998F801FF27CD
:1014A000EE0FFF1FE050FF4F8CEE92E091838083A0
:1014B000EFEFFFEFF0932B03E0932A03C12CD12C25
:1014C00080912E0390912F03C816D90684F5EFE181
:1014D000EE2EF12C81E090E0A0E0B0E00E2C04C0F4
:1014E000880F991FAA1FBB1F0A94D2F78821992140
:1014F000AA21BB21892B8A2B8B2B29F080913603C3
:101500009091370304C080913403909135030E9479
:101510002801F1E0EF1AF108E8F68091320390918A
:1015200033030E9428018FEFC81AD80AC9CF0F3F92
:101530009FEF1907F9F010932B0300932A03023051
:10154000C8F4F801FF27EE0FFF1FE050FF4F318274
:101550002082013041F0809169008C7F816080930E
:101560006900E89A07C080916900837F8460809356
:101570006900E99A60E08DE00E94F90090917A009C
:1015800010927A0014BEE8E1E0936000F1E6F09377
:101590006000A89583B7817F846083BFF89483B788
:1015A000816083BF20E625BF80E485BF789488955D
:1015B00083B78E7F83BF90937A0060E0809123038E
:1015C0000E94690161E0809123030E94F90010925A
:1015D000250310922603109227031092280360E03F
:1015E00086E00E94690160E087E00E9469010E9434
:1015F000EF0372CE84E691E00E94860586E00E94A9
:10160000A5018C0187E00E94A501012E000C220B90
:10161000330B322F212F102F0027092E000CAA0B7D
:10162000BB0B52E0B695A795979587955A95D1F73C
:10163000082B192B2A2B3B2B236333630093670260
:10164000109368022093690230936A02DACEFB019C
:10165000DC0102C005900D9241505040D8F708952A
:101660005058BB27AA270E94480B0C94BB0C0E9421
:10167000AD0C38F00E94B40C20F039F49F3F19F4FF
:1016800026F40C94AA0C0EF4E095E7FB0C94A40C41
:10169000E92F0E94CC0C58F3BA176207730784072E
:1016A000950720F079F4A6F50C94EE0C0EF4E09575
:1016B0000B2EBA2FA02D0B01B90190010C01CA010C
:1016C000A0011124FF27591B99F0593F50F4503EB7
:1016D00068F11A16F040A22F232F342F4427585FA9
:1016E000F3CF469537952795A795F0405395C9F7C1
:1016F0007EF41F16BA0B620B730B840BBAF0915079
:10170000A1F0FF0FBB1F661F771F881FC2F70EC017
:10171000BA0F621F731F841F48F4879577956795EA
:10172000B795F7959E3F08F0B0CF9395880F08F0D6
:101730009927EE0F9795879508950E94800C08F4DD
:1017400081E008950E94B60B0C94BB0C0E94B40C6F
:1017500058F00E94AD0C40F029F45F3F29F00C9442
:10176000A40C51110C94EF0C0C94AA0C0E94CC0CFC
:1017700068F39923B1F3552391F3951B550BBB27C0
:10178000AA2762177307840738F09F5F5F4F220F05
:10179000331F441FAA1FA9F335D00E2E3AF0E0E8FC
:1017A00032D091505040E695001CCAF72BD0FE2F46
:1017B00029D0660F771F881FBB1F261737074807DA
:1017C000AB07B0E809F0BB0B802DBF01FF27935892
:1017D0005F4F3AF09E3F510578F00C94A40C0C94A6
:1017E000EF0C5F3FE4F3983ED4F3869577956795C9
:1017F000B795F7959F5FC9F7880F911D96958795C7
:1018000097F90895E1E0660F771F881FBB1F6217E5
:1018100073078407BA0720F0621B730B840BBA0BA3
:10182000EE1F88F7E09508950E94D40C88F09F572A
:1018300098F0B92F9927B751B0F0E1F0660F771FF4
:10184000881F991F1AF0BA95C9F714C0B13091F0EA
:101850000E94EE0CB1E008950C94EE0C672F782FE7
:101860008827B85F39F0B93FCCF3869577956795AF
:10187000B395D9F73EF490958095709561957F4F1B
:101880008F4F9F4F0895E89409C097FB3EF49095C1
:101890008095709561957F4F8F4F9F4F9923A9F049
:1018A000F92F96E9BB279395F695879577956795D8
:1018B000B795F111F8CFFAF4BB0F11F460FF1BC01C
:1018C0006F5F7F4F8F4F9F4F16C0882311F096E9AF
:1018D00011C0772321F09EE8872F762F05C066235D
:1018E00071F096E8862F70E060E02AF09A95660F16
:1018F000771F881FDAF7880F9695879597F90895CF
:10190000990F0008550FAA0BE0E8FEEF1616170610
:10191000E807F907C0F012161306E407F50798F078
:10192000621B730B840B950B39F40A2661F0232B91
:10193000242B252B21F408950A2609F4A140A6950D
:101940008FEF811D811D089597F99F6780E870E0F2
:1019500060E008959FEF80EC089500240A94161625
:10196000170618060906089500240A94121613068D
:10197000140605060895092E0394000C11F488231B
:1019800052F0BB0F40F4BF2B11F460FF04C06F5F37
:101990007F4F8F4F9F4F089557FD9058440F551F0D
:1019A00059F05F3F71F04795880F97FB991F61F0E1
:1019B0009F3F79F087950895121613061406551F58
:1019C000F2CF4695F1DF08C0161617061806991FC4
:1019D000F1CF86957105610508940895E894BB27B9
:1019E00066277727CB0197F908950E94080D0C947C
:1019F000BB0C0E94AD0C38F00E94B40C20F0952373
:101A000011F00C94A40C0C94AA0C11240C94EF0C5F
:101A10000E94CC0C70F3959FC1F3950F50E0551FB9
:101A2000629FF001729FBB27F00DB11D639FAA2733
:101A3000F00DB11DAA1F649F6627B00DA11D661F82
:101A4000829F2227B00DA11D621F739FB00DA11DA3
:101A5000621F839FA00D611D221F749F3327A00D5D
:101A6000611D231F849F600D211D822F762F6A2FF9
:101A700011249F5750409AF0F1F088234AF0EE0F5E
:101A8000FF1FBB1F661F771F881F91505040A9F78B
:101A90009E3F510580F00C94A40C0C94EF0C5F3F1A
:101AA000E4F3983ED4F3869577956795B795F795C7
:101AB000E7959F5FC1F7FE2B880F911D969587953F
:101AC00097F908950E94800C880B990B0895AA1B22
:101AD000BB1B51E107C0AA1FBB1FA617B70710F019
:101AE000A61BB70B881F991F5A95A9F7809590954B
:101AF000BC01CD010895EE0FFF1F0590F491E02D7C
:101B0000099481E090E0F8940C94860DF894FFCF4E
:101B1000EC02EC023C00000000008003ED02170321
:101B2000CD03480326033A030000000044043904AF
:101B300056042B0432042F042C0452656164206681
:101B400061696C00496E697469616C2073756363C7
:101B500065737366756C2049443D3078353535358D
:101B600020313262697473000D0A00526561644469
:0E1B700048543A00526561644144433A000013
:00000001FF
