:100000000C947D000C94AE060C9487060C94A5000D
:100010000C94A5000C94A5000C9471080C94A500F8
:100020000C94A5000C94A5000C94A5000C94A500BC
:100030000C94A5000C9457080C94A5000C94A500F2
:100040000C943D060C94A5000C94FB060C94D5066C
:100050000C94A5000C94A5000C94A5000C94A5008C
:100060000C942D070C94A50000000000240027002C
:100070002A0000000000250028002B0000000000DE
:1000800023002600290004040404040404040202DA
:100090000202020203030303030301020408102007
:1000A0004080010204081020010204081020000012
:1000B0000008000201000003040700000000000027
:1000C00000005E01011F01030301008A02010A0111
:1000D0000202010064001E47040B0906007C0101B6
:1000E000060103030100F401060E0102020100C231
:1000F0000117010102020101880811241FBECFEF80
:10010000D8E0DEBFCDBF11E0A0E0B1E0EAECFBE15A
:1001100002C005900D92A039B107D9F723E0A0E9FC
:10012000B1E001C01D92AD35B207E1F710E0CDE7B7
:10013000D0E004C02197FE010E94D80DCC37D10732
:10014000C9F70E94EB080C94E30D0C940000833077
:1001500081F028F4813099F08230A1F00895873041
:10016000A9F08830B9F08430D1F4809180008F7D7F
:1001700003C0809180008F7780938000089584B5BC
:100180008F7702C084B58F7D84BD08958091B000C3
:100190008F7703C08091B0008F7D8093B000089569
:1001A000CF93DF93282F30E0F901E255FF4F849180
:1001B000F901E656FF4FD491F901EA57FF4FC49178
:1001C000CC2391F081110E94A700EC2FF0E0EE0FFC
:1001D000FF1FE458FF4FA591B491EC91ED2381E00E
:1001E00090E021F480E002C080E090E0DF91CF91C8
:1001F00008951F93CF93DF93282F30E0F901E25544
:10020000FF4F8491F901E656FF4FD491F901EA5767
:10021000FF4FC491CC23C1F0162F81110E94A7007B
:10022000EC2FF0E0EE0FFF1FEE58FF4FA591B491B9
:100230009FB7F894111104C08C91D095D82302C0B7
:10024000EC91DE2BDC939FBFDF91CF911F9108953E
:100250001F93CF93DF93182FD92F80915C038823AE
:1002600019F060E0C1E002C061E0C0E0809150039D
:100270000E94F9002091540330915503129FC00150
:10028000139F900D11248230910538F0880F991F2B
:10029000880F991F05970197F1F76C2F80915003F4
:1002A0000E94F9002091540330915503D29FC00160
:1002B000D39F900D11248230910538F0880F991F3B
:1002C000880F991F05970197F1F7DF91CF911F9143
:1002D0000895CF93DF9390E0FC01E656FF4F249101
:1002E000FC01EA57FF4F8491882361F190E0880F69
:1002F000991FFC01E859FF4FC591D491FC01EE58BC
:10030000FF4FA591B491611109C09FB7F8948881FE
:10031000209582238883EC912E230BC0623061F4F8
:100320009FB7F8948881322F309583238883EC918E
:100330002E2B2C939FBF06C08FB7F894E8812E2BED
:1003400028838FBFDF91CF9108958E3008F08E50B3
:100350008770806480937C0080917A0080648093B1
:100360007A0080917A0086FDFCCF80917800209100
:10037000790090E0922B08953FB7F8948091900215
:1003800090919102A0919202B091930226B5A89B00
:1003900005C02F3F19F00196A11DB11D3FBFBA2F17
:1003A000A92F982F8827820F911DA11DB11DBC0177
:1003B000CD0142E0660F771F881F991F4A95D1F73C
:1003C00008958F929F92AF92BF92CF92DF92EF9259
:1003D000FF926B017C010E94BC014B015C01C114C6
:1003E000D104E104F104F1F00E94BC01DC01CB0175
:1003F00088199909AA09BB09883E9340A105B1054E
:1004000070F321E0C21AD108E108F10888EE880EE5
:1004100083E0981EA11CB11CC114D104E104F104B5
:1004200019F7DDCFFF90EF90DF90CF90BF90AF90A6
:100430009F908F900895EF92FF921F93CF93DF9339
:1004400061E0809147030E94F9006AEF70E080E06C
:1004500090E00E94E1012FB7F8948091940290916E
:100460009502A0919602B09197022FBF4091490347
:1004700050914A0360914B0370914C038417950788
:10048000A607B70740F41092490310924A0310924E
:100490004B0310924C0320914D03211113C0409146
:1004A000490350914A0360914B0370914C03841BA4
:1004B000950BA60BB70B803D9740A105B10510F435
:1004C00081E084C010924D032FB7F894809194027C
:1004D00090919502A0919602B09197022FBF8093C0
:1004E000490390934A03A0934B03B0934C0310929B
:1004F000450310924403109243031092420310925A
:10050000410361E0809147030E94690160E08091AE
:1005100047030E94F90064E170E080E090E00E94EF
:10052000E101F89461E0809147030E94F9008BE9B2
:1005300090E00197F1F760E0809147030E94690124
:1005400010E081E0C0E0D0E0E82EF12C809147037C
:100550000E94D0008E159F0519F4DF5FDF3FB1F7D1
:10056000809147030E94D000DF3FA9F0C43080F0A3
:10057000C0FD0EC0E12FE695E695E695F0E0EF5B55
:10058000FC4F9081990FD73008F0916090831F5FE6
:10059000CF5FC535C1F678941832B8F02091450385
:1005A00030E0409141038091420390E0840F911D1F
:1005B00040914303840F911D40914403840F911D8A
:1005C00099272817390709F47BCF80E0DF91CF9175
:1005D0001F91FF90EF9008950895CF92DF92EF92D0
:1005E000FF920F931F93CF93DF936C017A018B01DE
:1005F000C0E0D0E0CE15DF0581F0D8016D918D010E
:10060000D601ED91FC910190F081E02DC601099594
:10061000892B11F02196EECF7E01C701DF91CF919A
:100620001F910F91FF90EF90DF90CF900895FC0104
:10063000538D448D252F30E0842F90E0821B930B47
:10064000541710F0CF96089501970895FC01918DED
:10065000828D981761F0828DDF01A80FB11D5D9624
:100660008C91928D9F5F9F73928F90E008958FEF92
:100670009FEF0895FC01918D828D981731F0828D46
:10068000E80FF11D858D90E008958FEF9FEF08959D
:10069000FC01918D228D892F90E0805C9F4F821B01
:1006A00091098F739927089588E992E00E94480381
:1006B00021E0892B09F420E0822F0895FC01848D2C
:1006C000DF01A80FB11DA35ABF4F2C91848D90E07C
:1006D00001968F739927848FA689B7892C93A08957
:1006E000B1898C91837080648C93938D848D9813E1
:1006F00006C00288F389E02D80818F7D8083089574
:10070000EF92FF920F931F93CF93DF93EC0181E061
:10071000888F9B8D8C8D981305C0E889F98980811D
:1007200085FD26C0F62E0B8D10E00F5F1F4F0F7357
:100730001127E02E8C8DE8120CC00FB607FCFACF03
:10074000E889F989808185FFF5CFCE010E945E039B
:10075000F1CF8B8DFE01E80FF11DE35AFF4FF082C0
:100760009FB7F8940B8FEA89FB89808180620AC069
:100770009FB7F894EE89FF896083E889F9898081C1
:100780008370806480839FBF81E090E0DF91CF9190
:100790001F910F91FF90EF900895CF93DF93EC019D
:1007A000888D8823C9F0EA89FB89808185FD05C091
:1007B000A889B9898C9186FD0FC00FB607FCF5CFCB
:1007C000808185FFF2CFA889B9898C9185FFEDCF13
:1007D000CE010E945E03E7CFDF91CF91089580E0C4
:1007E00090E0892B29F00E94540381110C940000A1
:1007F000089585ED8093BC008091BC0084FDFCCF02
:1008000010926302089540913F02262F30E0240F9A
:10081000311D21323105DCF4209163022430C9F40A
:10082000FC0180E090E0861758F430913F0221915E
:10083000DC01A15EBD4FA30FB11D2C930196F3CF38
:1008400080913F02680F60933F0280E0089581E04D
:10085000089582E0089508958FEF9FEF08958FEF38
:100860009FEF089580911E0290E0919581959109E6
:100870000895CF93DF93CB01EA01642F0E94030414
:10088000CE01DF91CF910895CF93DF931F92CDB723
:10089000DEB7698361E0CE0101960E94030481E026
:1008A00090E00F90DF91CF910895089580E090E05F
:1008B0000895CF93DF93CEE4D3E084E090E09B8370
:1008C0008A8361E00E94690149E050E06BEC70E0CE
:1008D00084E593E00E94840B86E090E09D838C8306
:1008E000C1E4D3E060E08E810E94690161E08E8105
:1008F0000E94F900188619861A861B86DF91CF910F
:1009000008952F923F924F925F926F927F928F92B3
:100910009F92AF92BF92CF92DF92EF92FF920F938E
:100920001F93CF93DF93CDB7DEB72D970FB6F89413
:10093000DEBF0FBECDBF0E94BC014B015C018091A8
:100940001A0290911B027401E81AF90A2DECE216C2
:1009500020E1F20608F4C0C08091940190919501C5
:10096000A701481B590BCA0157FF03C091958195F8
:100970009109883C91050CF0ABC080919201909157
:10098000930101969093930180939201029709F04D
:100990009FC002EC10E0C0909001D090910149E01E
:1009A00050E0B801CE0101960E94840B8B816C81CE
:1009B000681708F4682F70E0809194019091950178
:1009C0000E94C40DFB012091040130910501629F3A
:1009D000C001639F900D729F900D112464E670E03A
:1009E0000E94C40D8985811103C021E030E002C05E
:1009F00022E030E08D818E9FD0018F9FB00D1124B9
:100A0000BB87AA878E818E9F10018F9F300C112487
:100A10008F818E9F20018F9F500C112488858E9F7F
:100A200030018F9F700C1124F901EE0FFF1FEC565F
:100A3000FE4FA601415051095D874C878C859D85ED
:100A400028173907A8F580819181AC01AA85BB855B
:100A50004A1B5B0B57FF03C051954195510946173F
:100A6000570760F4428153814219530957FF03C06D
:100A700051954195510946175707B0F084199509CA
:100A800097FF03C091958195910986179707A0F468
:100A9000828193818619970997FF03C0919581956B
:100AA00091098617970740F42E5F3F4F3496C6CFC3
:100AB000B8E0CB16D10440F4075F1F4F28EF30E0B9
:100AC0002017310709F067CF10929301109292011D
:100AD000109291011092900180919001909191015A
:100AE0008334910540F01092910110929001109280
:100AF00093011092920180919001909191019C013B
:100B00002F5F3F4F3093910120939001880F991FE1
:100B1000FC01EC56FE4FF182E08280921A02909224
:100B20001B02A0921C02B0921D022D960FB6F894E3
:100B3000DEBF0FBECDBFDF91CF911F910F91FF9010
:100B4000EF90DF90CF90BF90AF909F908F907F906D
:100B50006F905F904F903F902F900895009769F0AD
:100B6000FC0101900020E9F73197AF01481B590BB8
:100B7000BC0188E992E00C94ED0280E090E00895D9
:100B8000CF92DF92EF92FF92CF93DF93C82F0E9414
:100B90001B02882309F456C0809148038B3031F042
:100BA00008F450C085518230A0F04CC060914303DE
:100BB00070E080E090E00E94A00CCC2309F44BC0D0
:100BC00020E030E040E151E46B017C01C701B60157
:100BD0002AC0D09143036D2F6F7770E080E090E0E2
:100BE0000E94A20C20E030E040E853E40E94520D45
:100BF0006B017C016091440370E080E090E00E9412
:100C0000A20CA70196010E948E0B20E030E040E28A
:100C100051E40E94FF0BD7FD9058CC23E1F020E077
:100C200030E040E151E40E94520D20E030E040EA23
:100C300050E40E94FF0B20E030E040E052E40E94CC
:100C40008E0B09C08AE291E00E94AE0540E030E0E0
:100C500020EC9FE703C0462F372F282FC42ED32E1A
:100C6000E22EF92EC701B601DF91CF91FF90EF90F0
:100C7000DF90CF9008950E94DE0D1F920F920FB665
:100C80000F9211242F933F938F939F93AF93BF9312
:100C90008091940290919502A0919602B091970252
:100CA00030918F0223E0230F2D3720F40196A11DF0
:100CB000B11D05C026E8230F0296A11DB11D20938A
:100CC0008F028093940290939502A0939602B09322
:100CD00097028091900290919102A0919202B0911E
:100CE00093020196A11DB11D8093900290939102F1
:100CF000A0939202B0939302BF91AF919F918F9175
:100D00003F912F910F900FBE0F901F9018951F923B
:100D10000F920FB60F9211242F933F934F935F932F
:100D20006F937F938F939F93AF93BF93EF93FF93B3
:100D3000E0910201F09103010995FF91EF91BF91BC
:100D4000AF919F918F917F916F915F914F913F9163
:100D50002F910F900FBE0F901F9018951F920F921A
:100D60000FB60F9211242F933F934F935F936F937E
:100D70007F938F939F93AF93BF93EF93FF93E091F4
:100D80000001F09101010995FF91EF91BF91AF91A1
:100D90009F918F917F916F915F914F913F912F9193
:100DA0000F900FBE0F901F9018951F920F920FB6C5
:100DB0000F9211242F933F934F935F936F937F93E1
:100DC0008F939F93AF93BF93EF93FF9388E992E044
:100DD0000E945E03FF91EF91BF91AF919F918F9120
:100DE0007F916F915F914F913F912F910F900FBE27
:100DF0000F901F9018951F920F920FB60F9211240B
:100E00002F938F939F93EF93FF93E091A802F0911C
:100E1000A9028081E091AE02F091AF0282FD12C082
:100E200090818091B1028F5F8F732091B2028217FF
:100E300051F0E091B102F0E0E856FD4F958F8093BC
:100E4000B10201C08081FF91EF919F918F912F910D
:100E50000F900FBE0F901F9018951F920F920FB614
:100E60000F9211242F933F934F935F936F937F9330
:100E70008F939F93AF93BF93EF93FF938091B900AC
:100E8000887F803609F49CC068F5883209F45BC01D
:100E900090F4803109F454C038F4882309F4F2C086
:100EA000883009F44DC0F2C0883109F44CC080325A
:100EB00009F45DC0EBC0803409F468C048F48033A5
:100EC00009F455C0883309F0E1C080936202D4C0B0
:100ED000803509F44FC0883509F45DC0883409F0C5
:100EE000D5C0D2C0883909F4C3C0A8F4883709F442
:100EF00067C038F4883609F463C0803709F460C0ED
:100F0000C5C0883809F4B4C0803909F45FC080389E
:100F100009F0BCC05BC0803B09F484C038F4803A5F
:100F200009F466C0883A09F47DC0B0C0803C09F479
:100F3000A3C0883C09F4A0C0883B09F486C0A6C0C1
:100F40008091880210C09091870280918602981744
:100F500070F5E091870281E08E0F80938702F0E0C8
:100F6000EA59FD4F80818093BB0085EC82C080935D
:100F700062028AC0E091870281E08E0F809387022F
:100F80008091BB00F0E0EA59FD4F80839091870289
:100F9000809186026AC0E091870281E08E0F809383
:100FA00087028091BB00F0E0EA59FD4F8083809179
:100FB0006502811169C081E08093640284EA5DC0AA
:100FC00083E08093630210926102CFCF809161022F
:100FD000803208F04DC0E091610281E08E0F809375
:100FE00061028091BB00F0E0EF5BFD4F8083BDCFDD
:100FF00085EC8093BC001092630280916102803284
:1010000030F4E0916102F0E0EF5BFD4F10826091FF
:10101000610270E081E492E0E0E0F0E00995109276
:10102000610234C084E08093630210924002109207
:101030003F02E0E0F0E0099580913F02811105C098
:1010400081E080933F0210921F02E091400281E014
:101050008E0F80934002F0E0E15EFD4F808180932F
:10106000BB009091400280913F02981708F47DCF19
:1010700085E88093BC000AC085EC8093BC00109288
:10108000630204C0109262020E94F903FF91EF9183
:10109000BF91AF919F918F917F916F915F914F9190
:1010A0003F912F910F900FBE0F901F9018951F9298
:1010B0000F920FB60F9211248F939F9380918D0200
:1010C00090918E02892B31F481E090E090938E0212
:1010D00080938D029F918F910F900FBE0F901F9064
:1010E00018951F920F920FB60F9211248F930FB67F
:1010F000F894A895809160008861809360001092B8
:1011000060000FBE8F910F900FBE0F901F9018952B
:101110000F931F93CF93DF93E8E9F2E013821282DB
:1011200088EE93E0A0E0B0E084839583A683B78344
:101130002AE031E03183208325EC30E035872487B5
:1011400024EC30E03787268720EC30E0318B208B91
:1011500021EC30E0338B228B22EC30E0358B248B7A
:1011600026EC30E0378B268B118E128E138E148E68
:10117000E5E3F3E01382128284839583A683B78329
:101180008CE191E091838083CEE4D3E00FEF1FEFF9
:101190001B830A838AE090E09D838C8349E050E0C2
:1011A00062EC70E084E593E00E94840B198308836D
:1011B0008CE390E09093050180930401E1E4F3E077
:1011C00081E1868386E1878381E08487DF91CF9107
:1011D0001F910F910895CF93DF93CDB7DEB7A197FD
:1011E0000FB6F894DEBF0FBECDBF789484B5826091
:1011F00084BD84B5816084BD85B5826085BD85B5BB
:10120000816085BD80916E00816080936E00109238
:1012100081008091810082608093810080918100B3
:101220008160809381008091800081608093800044
:101230008091B10084608093B1008091B0008160A2
:101240008093B00080917A00846080937A008091CE
:101250007A00826080937A0080917A008160809326
:101260007A0080917A00806880937A001092C100A1
:10127000E091A802F091A90282E08083E091A402AB
:10128000F091A5021082E091A602F091A7028FECE6
:1012900080831092B002E091AC02F091AD0286E042
:1012A0008083E091AA02F091AB028081806180830B
:1012B000E091AA02F091AB02808188608083E09186
:1012C000AA02F091AB02808180688083E091AA023B
:1012D000F091AB0280818F7D808361E08DE00E9480
:1012E000690184E391E00E94AE058BE791E00E94E2
:1012F000AE0510928000109285001092840085E067
:101300008093810081E080936F000E945904ACEECD
:101310002A2EA2E03A2E80918D0290918E020197A2
:1013200009F019C110928E0210928D020E941B02C8
:10133000882399F1809148038B3029F170F1855110
:10134000823058F56091410370E080E090E00E94A7
:10135000A00C20E030E040E853E40E94520D6B0105
:101360007C016091420370E080E090E00E94A20C5A
:10137000A70196010E948E0B20E030E040E251E48C
:101380000E94FF0B07C06091410370E080E090E095
:101390000E94A00C4B015C010AC08AE291E00E940D
:1013A000AE05812C912CF0ECAF2EFFE7BF2E80E034
:1013B0000E94C0056B017C0181E00E94C0052B01E9
:1013C0003C01A5019401C501B4010E94BF0D81112A
:1013D000C5C0A7019601C701B6010E94BF0D8111CA
:1013E000BDC0A3019201C301B2010E94BF0D8111D2
:1013F000B5C087E891E00E94AE0520E030E0A90189
:10140000C701B6010E94FA0B87FF69C120E030E0F6
:1014100040E251E4C701B6010E94520D9B01AC01AC
:1014200060E070E0CB010E948D0B0E94710C20E8FF
:10143000629FC0011124092E000CAA0BBB0BA363F1
:10144000B3638093890290938A02A0938B02B09336
:101450008C02C0908902D0908A02E0908B02F090BA
:101460008C0280E8C822C501B4010E94710C6F771C
:10147000C62AC0928902D0928A02E0928B02F09230
:101480008C020091890210918A0220918B02309186
:101490008C0219A2CE018196B901A8014F7055277F
:1014A00066277727E4E03695279517950795EA95FF
:1014B000D1F701974A300CF08AC0405DFC014083AF
:1014C000011511052105310539F70E94AE058BE79D
:1014D00091E00E94AE0561E08DE00E94F9008091EC
:1014E000500390915103019609F073C060E08DE0C4
:1014F0000E94F900A89583B7817F83BF83B781607D
:1015000083BF809164008160809364008091640057
:1015100084608093640080916400806280936400A2
:10152000809164008064809364008091640080688E
:101530008093640083B7816083BF889583B78E7F73
:1015400083BF83B78E7F83BF809164008071809357
:1015500064000E9459040E94EF03DDCE8DE791E004
:101560000E94AE058BE791E00E94AE058EE791E008
:101570000E94AE0586E00E94A5018C0187E00E94D2
:10158000A501092E000CAA0BBB0B22E0B695A7956E
:10159000979587952A95D1F7A063B363012E000C28
:1015A000220B330B47E0000F111F221F331F4A95F8
:1015B000D1F70027082B192B2A2B3B2B00938902EC
:1015C00010938A0220938B0230938C025ACF495C8D
:1015D00075CF8090890290908A02A0908B02B09083
:1015E0008C0200914E0310914F030F3F2FEF120713
:1015F000A9F0023068F4013011F0E89801C0E998D0
:10160000F801FF27EE0FFF1FE050FF4F31822082CD
:101610008FEF9FEF90934F0380934E03C12CD12CFB
:101620008091520390915303C816D90684F56FE157
:10163000E62EF12C81E090E0A0E0B0E00E2C04C09A
:10164000880F991FAA1FBB1F0A94D2F788219921DE
:10165000AA21BB21892B8A2B8B2B29F080915A033D
:1016600090915B0304C080915803909159030E94AC
:10167000280191E0E91AF108E8F68091560390916B
:1016800057030E942801FFEFCF1ADF0AC9CF0F3F8F
:101690002FEF120709F42ACF10934F0300934E0344
:1016A000023008F023CFF801FF27EE0FFF1FE050B4
:1016B000FF4F21E834E031832083013041F08091F5
:1016C00069008C7F816080936900E89A0FCF8091D8
:1016D0006900837F846080936900E99A07CF20E0E6
:1016E00030E040E251E4C701B6010E94520D0E9471
:1016F000710C30E8639FC0011124092E000CAA0B65
:10170000BB0BA263B3639DCEFB01DC0102C005905D
:101710000D9241505040D8F708955058BB27AA2742
:101720000E94A50B0C94180D0E940A0D38F00E941F
:10173000110D20F039F49F3F19F426F40C94070D95
:101740000EF4E095E7FB0C94010DE92F0E94290DA2
:1017500058F3BA17620773078407950720F079F4E6
:10176000A6F50C944B0D0EF4E0950B2EBA2FA02D80
:101770000B01B90190010C01CA01A0011124FF273E
:10178000591B99F0593F50F4503E68F11A16F04039
:10179000A22F232F342F4427585FF3CF4695379538
:1017A0002795A795F0405395C9F77EF41F16BA0BFD
:1017B000620B730B840BBAF09150A1F0FF0FBB1FAB
:1017C000661F771F881FC2F70EC0BA0F621F731FF4
:1017D000841F48F4879577956795B795F7959E3F51
:1017E00008F0B0CF9395880F08F09927EE0F9795E2
:1017F000879508950E94DD0C08F481E008950E9409
:10180000130C0C94180D0E94110D58F00E940A0D33
:1018100040F029F45F3F29F00C94010D51110C9414
:101820004C0D0C94070D0E94290D68F39923B1F318
:10183000552391F3951B550BBB27AA2762177307F6
:10184000840738F09F5F5F4F220F331F441FAA1F8A
:10185000A9F335D00E2E3AF0E0E832D09150504046
:10186000E695001CCAF72BD0FE2F29D0660F771FF4
:10187000881FBB1F261737074807AB07B0E809F0DA
:10188000BB0B802DBF01FF2793585F4F3AF09E3F5F
:10189000510578F00C94010D0C944C0D5F3FE4F36E
:1018A000983ED4F3869577956795B795F7959F5FA2
:1018B000C9F7880F911D9695879597F90895E1E0EE
:1018C000660F771F881FBB1F621773078407BA074D
:1018D00020F0621B730B840BBA0BEE1F88F7E095A8
:1018E00008950E94310D88F09F5798F0B92F9927DD
:1018F000B751B0F0E1F0660F771F881F991F1AF0FB
:10190000BA95C9F714C0B13091F00E944B0DB1E007
:1019100008950C944B0D672F782F8827B85F39F006
:10192000B93FCCF3869577956795B395D9F73EF493
:1019300090958095709561957F4F8F4F9F4F08953B
:10194000E89409C097FB3EF4909580957095619559
:101950007F4F8F4F9F4F9923A9F0F92F96E9BB270F
:101960009395F695879577956795B795F111F8CF8B
:10197000FAF4BB0F11F460FF1BC06F5F7F4F8F4FF6
:101980009F4F16C0882311F096E911C0772321F0EC
:101990009EE8872F762F05C0662371F096E8862F84
:1019A00070E060E02AF09A95660F771F881FDAF7DB
:1019B000880F9695879597F90895990F0008550F08
:1019C000AA0BE0E8FEEF16161706E807F907C0F0C5
:1019D00012161306E407F50798F0621B730B840BCD
:1019E000950B39F40A2661F0232B242B252B21F4A7
:1019F00008950A2609F4A140A6958FEF811D811D47
:101A0000089597F99F6780E870E060E008959FEF80
:101A100080EC089500240A94161617061806090685
:101A2000089500240A941216130614060506089554
:101A3000092E0394000C11F4882352F0BB0F40F4DC
:101A4000BF2B11F460FF04C06F5F7F4F8F4F9F4F1C
:101A5000089557FD9058440F551F59F05F3F71F09E
:101A60004795880F97FB991F61F09F3F79F0879505
:101A70000895121613061406551FF2CF4695F1DF8E
:101A800008C0161617061806991FF1CF869571051E
:101A9000610508940895E894BB2766277727CB0152
:101AA00097F908950E94650D0C94180D0E940A0D77
:101AB00038F00E94110D20F0952311F00C94010DC7
:101AC0000C94070D11240C944C0D0E94290D70F3F9
:101AD000959FC1F3950F50E0551F629FF001729FD3
:101AE000BB27F00DB11D639FAA27F00DB11DAA1FE2
:101AF000649F6627B00DA11D661F829F2227B00D2F
:101B0000A11D621F739FB00DA11D621F839FA00DB9
:101B1000611D221F749F3327A00D611D231F849F09
:101B2000600D211D822F762F6A2F11249F57504060
:101B30009AF0F1F088234AF0EE0FFF1FBB1F661FDB
:101B4000771F881F91505040A9F79E3F510580F0A4
:101B50000C94010D0C944C0D5F3FE4F3983ED4F3CC
:101B6000869577956795B795F795E7959F5FC1F748
:101B7000FE2B880F911D9695879597F908950E94E1
:101B8000DD0C880B990B0895AA1BBB1B51E107C004
:101B9000AA1FBB1FA617B70710F0A61BB70B881FFD
:101BA000991F5A95A9F780959095BC01CD0108958C
:101BB000EE0FFF1F0590F491E02D099481E090E075
:0A1BC000F8940C94E30DF894FFCFA5
:101BCA00EC02EC023C00000000008003ED02170367
:101BDA00CD03480326033A030000000044043904F5
:101BEA0056042B0432042F042C04526561642066C7
:101BFA0061696C00496E697469616C20737563630D
:101C0A0065737366756C2049443D307833333333DA
:101C1A0028313262697473293A66756E6374696F22
:101C2A006E2B5369676E283462697473293A64614A
:101C3A0074612831366269747329000D0A0052658D
:101C4A0061644144433A00526561644448543A002D
:00000001FF
